{
  "contractName": "TodoList",
  "abi": [
    {
      "constant": true,
      "inputs": [
        {
          "name": "",
          "type": "uint256"
        }
      ],
      "name": "tasks",
      "outputs": [
        {
          "name": "id",
          "type": "uint256"
        },
        {
          "name": "content",
          "type": "string"
        },
        {
          "name": "completed",
          "type": "bool"
        }
      ],
      "payable": false,
      "stateMutability": "view",
      "type": "function",
      "signature": "0x8d977672"
    },
    {
      "constant": true,
      "inputs": [],
      "name": "taskCount",
      "outputs": [
        {
          "name": "",
          "type": "uint256"
        }
      ],
      "payable": false,
      "stateMutability": "view",
      "type": "function",
      "signature": "0xb6cb58a5"
    },
    {
      "inputs": [],
      "payable": false,
      "stateMutability": "nonpayable",
      "type": "constructor",
      "signature": "constructor"
    },
    {
      "anonymous": false,
      "inputs": [
        {
          "indexed": false,
          "name": "id",
          "type": "uint256"
        },
        {
          "indexed": false,
          "name": "content",
          "type": "string"
        },
        {
          "indexed": false,
          "name": "completed",
          "type": "bool"
        }
      ],
      "name": "TaskAdded",
      "type": "event",
      "signature": "0x21807e0d6dbaf49ba098938b6b472ebe4bf827bb2f6e95acbef0c69d42ec8439"
    },
    {
      "anonymous": false,
      "inputs": [
        {
          "indexed": false,
          "name": "id",
          "type": "uint256"
        },
        {
          "indexed": false,
          "name": "completed",
          "type": "bool"
        }
      ],
      "name": "TaskCompleted",
      "type": "event",
      "signature": "0xe21fa966ca5cd02748c0752352d18c48165e61cb55b4c29cccf924b5a95fcff1"
    },
    {
      "constant": false,
      "inputs": [
        {
          "name": "_content",
          "type": "string"
        }
      ],
      "name": "addTask",
      "outputs": [],
      "payable": false,
      "stateMutability": "nonpayable",
      "type": "function",
      "signature": "0x67238562"
    },
    {
      "constant": false,
      "inputs": [
        {
          "name": "taskId",
          "type": "uint256"
        }
      ],
      "name": "toggleCompleteTask",
      "outputs": [],
      "payable": false,
      "stateMutability": "nonpayable",
      "type": "function",
      "signature": "0x4ec47d3d"
    }
  ],
  "bytecode": "0x60806040526000805534801561001457600080fd5b5060408051808201909152600e81527f4c6561726e20736f6c6964697479000000000000000000000000000000000000602082015261005b906401000000006100a6810204565b60408051808201909152601481527f4c6561726e206e657720766f636162756c61727900000000000000000000000060208201526100a1906401000000006100a6810204565b610265565b60008054600190810180835560408051606081018252828152602080820187815282840187905293865284815291909420845181559151805192936100f3939085019291909101906101ca565b5060408201518160020160006101000a81548160ff0219169083151502179055509050507f21807e0d6dbaf49ba098938b6b472ebe4bf827bb2f6e95acbef0c69d42ec8439600054826000604051808481526020018060200183151515158152602001828103825284818151815260200191508051906020019080838360005b8381101561018b578181015183820152602001610173565b50505050905090810190601f1680156101b85780820380516001836020036101000a031916815260200191505b5094505050505060405180910390a150565b828054600181600116156101000203166002900490600052602060002090601f016020900481019282601f1061020b57805160ff1916838001178555610238565b82800160010185558215610238579182015b8281111561023857825182559160200191906001019061021d565b50610244929150610248565b5090565b61026291905b80821115610244576000815560010161024e565b90565b610521806102746000396000f3fe6080604052600436106100615763ffffffff7c01000000000000000000000000000000000000000000000000000000006000350416634ec47d3d811461006657806367238562146100925780638d97767214610145578063b6cb58a5146101f9575b600080fd5b34801561007257600080fd5b506100906004803603602081101561008957600080fd5b5035610220565b005b34801561009e57600080fd5b50610090600480360360208110156100b557600080fd5b8101906020810181356401000000008111156100d057600080fd5b8201836020820111156100e257600080fd5b8035906020019184600183028401116401000000008311171561010457600080fd5b91908080601f016020809104026020016040519081016040528093929190818152602001838380828437600092019190915250929550610281945050505050565b34801561015157600080fd5b5061016f6004803603602081101561016857600080fd5b50356103a5565b604051808481526020018060200183151515158152602001828103825284818151815260200191508051906020019080838360005b838110156101bc5781810151838201526020016101a4565b50505050905090810190601f1680156101e95780820380516001836020036101000a031916815260200191505b5094505050505060405180910390f35b34801561020557600080fd5b5061020e610454565b60408051918252519081900360200190f35b600081815260016020908152604091829020600201805460ff8116801560ff199092168217909255835185815292830152825190927fe21fa966ca5cd02748c0752352d18c48165e61cb55b4c29cccf924b5a95fcff1928290030190a15050565b60008054600190810180835560408051606081018252828152602080820187815282840187905293865284815291909420845181559151805192936102ce9390850192919091019061045a565b5060408201518160020160006101000a81548160ff0219169083151502179055509050507f21807e0d6dbaf49ba098938b6b472ebe4bf827bb2f6e95acbef0c69d42ec8439600054826000604051808481526020018060200183151515158152602001828103825284818151815260200191508051906020019080838360005b8381101561036657818101518382015260200161034e565b50505050905090810190601f1680156103935780820380516001836020036101000a031916815260200191505b5094505050505060405180910390a150565b600160208181526000928352604092839020805481840180548651600296821615610100026000190190911695909504601f810185900485028601850190965285855290949193929091908301828280156104415780601f1061041657610100808354040283529160200191610441565b820191906000526020600020905b81548152906001019060200180831161042457829003601f168201915b5050506002909301549192505060ff1683565b60005481565b828054600181600116156101000203166002900490600052602060002090601f016020900481019282601f1061049b57805160ff19168380011785556104c8565b828001600101855582156104c8579182015b828111156104c85782518255916020019190600101906104ad565b506104d49291506104d8565b5090565b6104f291905b808211156104d457600081556001016104de565b9056fea165627a7a72305820a94362c41cb64fbb600330439b2d55036efd9b79136a78122d4a719c9272ec840029",
  "source": "// SPDX-License-Identifier: MIT\npragma solidity >=0.4.22 <0.9.0;\n\ncontract TodoList {\n  uint public taskCount = 0;\n\n  struct Task {\n    uint id;\n    string content;\n    bool completed;\n  }\n\n  mapping(uint => Task) public tasks;\n\n  event TaskAdded(uint id, string content, bool completed);\n  event TaskCompleted(uint id, bool completed);\n\n  constructor() public {\n    addTask(\"Learn solidity\");\n    addTask(\"Learn new vocabulary\");\n  }\n\n  function addTask(string memory _content) public {\n    taskCount++;\n    tasks[taskCount] = Task(taskCount, _content, false);\n    emit TaskAdded(taskCount, _content, false);\n  }\n\n  function toggleCompleteTask(uint taskId) public {\n    bool completed = tasks[taskId].completed;\n    tasks[taskId].completed = !completed;\n    emit TaskCompleted(taskId, !completed);\n  }\n}\n",
  "sourcePath": "/Users/baoanh/Documents/workspace/blockchain/eth-todo-list/contracts/TodoList.sol",
  "compiler": {
    "name": "solc",
    "version": "0.5.0+commit.1d4f565a.Emscripten.clang"
  },
  "schemaVersion": "3.0.1",
  "updatedAt": "2022-01-18T00:35:51.515Z",
  "devdoc": {
    "methods": {}
  },
  "userdoc": {
    "methods": {}
  }
}